:100000003DC04CC032C24AC085C1A9C147C046C02C
:1000100045C044C043C042C041C040C0AFC1080059
:100020000000BE922449123EABAAAA2ABECDCCCC77
:100030004C3E00000080BEABAAAAAA3E0000000011
:10004000BF000000803F0000000000084178D3BBE3
:100050004387D1133D190E3CC3BD4282AD2B3E6890
:10006000EC8276BED98FE1A93E4C80EFFFBE01C481
:10007000FF7F3F0000000000302E303311241FBEF0
:10008000CFE5D2E0DEBFCDBF20E0A0E6B0E001C00A
:100090001D92A23BB207E1F70FD28FC6B1CF382F26
:1000A000FC018FEF9FEF2E2F231B261788F4219141
:1000B000822728E0AC014170552796958795452BFE
:1000C00021F041E0842740EA9427215099F7EBCFB3
:1000D000089587B3846187BB88B38B7E88BB0895FE
:1000E000982F96959575880F8A7A982B892F8695E3
:1000F00086958373990F990F9C7C892B829508951F
:10010000CF92DF92EF92FF920F931F93CF93DF93E3
:10011000D62F8C01FF24F39482E0D82E94E5C92ECB
:10012000EE24EA94DD2379F1F80181918F01C091E9
:10013000A300CF5FCF719091A200C917E1F3D0DF88
:10014000EC2FF0E0EE57FF4F8083C093A300809127
:10015000A50080FD16C08091A50082FDFCCFF8941B
:1001600012BEFCBCF3BED8BE89B7826089BFCDB8D1
:10017000EFB8EEB8B99A8091A50081608093A50090
:100180007894D150CFCFDF91CF911F910F91FF90F5
:10019000EF90DF90CF9008951F93CF93DF93EC0102
:1001A000162F6EEF610F7BDF9E01210F311DF901CC
:1001B0003297808331969083612FCE01DF91CF916A
:1001C0001F919ECF8F929F92AF92BF92CF92DF925C
:1001D000EF92FF92CF9386B1877D86B9379A8FE8E9
:1001E00087B98FE99FE00197F1F700C00000C4E0F4
:1001F000C12CD12C7601369A3699FECF64B175B1F7
:1002000080E090E06BD49B01AC01C701B6016CD3D8
:100210006B017C01C15079F720E030E040E85EE3FB
:100220002ED54B015C013798379A8CE187B98FE95D
:100230009FE00197F1F700C00000C4E0C12CD12C71
:100240007601369A3699FECF64B175B180E090E0C0
:1002500045D49B01AC01C701B60146D36B017C01BB
:10026000C15079F720E030E040E85EE308D59B011B
:10027000AC016DEC7CEC8CE894E49AD36B017C01CE
:10028000379820E030E040E251E4F9D4F9D382EE2F
:10029000860F823E28F0613128F0CFEEC60F03C0F2
:1002A000CDE001C0C0E0C092AE00D092AF00E092BD
:1002B000B000F092B10023E333E748E853E4C5010E
:1002C000B40111D32AE939E949E85FE371D36B013D
:1002D0007C016C2F70E080E090E0FED320E030E005
:1002E00040E551E465D39B01AC01C701B601FCD2E6
:1002F0006093AA007093AB008093AC009093AD0024
:10030000CF91FF90EF90DF90CF90BF90AF909F90F4
:100310008F9008951F920F920FB60F9211248F9312
:100320009F93AF93BF938091A6009091A700A09157
:10033000A800B091A9000196A11DB11D8093A6004F
:100340009093A700A093A800B093A900BF91AF918C
:100350009F918F910F900FBE0F901F9018951F9235
:100360000F920FB60F9211248F9382B78E5C82BFCB
:100370008F910F900FBE0F901F9018951F920F92A4
:100380000FB60F9211248F939F93EF93FF93809159
:10039000A50080FF38C0C39A8091A50081FF0EC0E0
:1003A0008091A5008D7F8093A5008BEF8EB9809101
:1003B000A400880F880F880F87601EC09091A3004B
:1003C0008091A2009817D1F08091A500826080935F
:1003D000A500E091A200EF5FEF71E093A200F0E0D2
:1003E000EE57FF4F80818093A4008BEF8EB98091F0
:1003F000A4008695869580688FB92EC0C398809199
:10040000A5008E7F11C0C3988091A5008B7F80933B
:10041000A500E0918100EF5FEF7180918000E8130B
:1004200006C08091A50088608093A50007C0E09376
:1004300081008FB1F0E0E05AFF4F808313BE88B394
:10044000836088BB87B38C7F87BB1DB880E28ABF7F
:100450008BB780628BBFA89AFF91EF919F918F918C
:100460000F900FBE0F901F9018951F920F920FB60E
:100470000F9211248F93B09919C081E182BF82B786
:10048000885682BF81E08CBD83BF82E088BF89B778
:10049000826089BF84E58DB987EF8EB98BB78F7D78
:1004A0008BBF8091A50084608093A5008F910F90F1
:1004B0000FBE0F901F901895CF93DF93CDB7DEB787
:1004C000A0970FB6F894DEBF0FBECDBFF89480E0C2
:1004D00090E0F3D1F82E76DE109280001092810029
:1004E0001092A2001092A300BB9AC39888B38360B5
:1004F00088BB87B38C7F87BB1DB880E28ABF8BB770
:1005000080628BBFA89A7894CE0148969C8F8B8F7F
:10051000A89590918100809180009817C9F3EFE031
:10052000F7E23197F1F700C0000082E0E82E96E88C
:10053000392E23E0D22E36ECC32E9091810080918B
:100540008000981729F3FE0171969E2EAF2E8181AF
:1005500081938B8D9C8DE817F907C9F790918100E5
:10056000809180009817D1F3E0918000EF5FEF71E8
:10057000E0938000F0E0E05AFF4F8081B1DD888F8A
:100580009989F912DACFBA889DEF9B0D923018F055
:1005900096E0B912D2CF0F8910E0182B66E0892DB2
:1005A0009A2D7DDD0817190741F60B891C89102744
:1005B000012710278E888D89F982E4E0BE1609F4A0
:1005C0002BC1F6E0BF1609F434C123E0B212B5CF57
:1005D000BA820115110541F441E08412AECFEB82DD
:1005E0001C821D8267E019C001301105D1F482E040
:1005F0008812A3CF84E08B83E8E7F0E084918C83BA
:10060000E9E7F0E084918D83EAE7F0E084918E835E
:10061000EBE7F0E084918F8369E0CE010196BCDDC9
:100620003AC00230110559F4F1E08F1286CFEB8207
:1006300080E090E042D1F82E1C828D83F8C0033018
:10064000110591F422E0821278CF84E08B83BADD29
:100650008091B1008C838091B0008D838091AF0038
:100660008E838091AE0014C004301105A1F442E0E5
:10067000841263CF84E08B83A5DD8091AD008C83F1
:100680008091AC008D838091AB008E838091AA0015
:100690008F8369E00EC10530110509F04ECF8E89B8
:1006A000813009F04ACFEB82BC98E7B8C29AC6B84D
:1006B0003699FECF04B185B110E0182B0ADD003267
:1006C00083E01807ECF4B801012E000C880B990B9D
:1006D00005D22AE037ED43EC51E4D1D24B015C0165
:1006E0006FEF73E0601B710B072E000C880B990BEA
:1006F000F5D19B01AC01C501B4015AD1C1D185C06E
:10070000EFECF7E03197F1F700C0000010BE1FBC1E
:100710001092A6001092A7001092A8001092A900B3
:1007200084E089BF81E087B9BA98C29AD0BEB299F5
:100730000DC08091A6009091A700A091A800B09153
:10074000A900883E9340A105B10588F380B78C7F4E
:1007500080BFC298C6B83699FECF04B185B110E00B
:10076000182BB7DC4090A6005090A7006090A8001E
:100770007090A9002FB4B801110F880B990BAED15E
:1007800020E030EC4FE754E413D19B01AC0160E072
:1007900070E080E89FE3A7D032D24B015C01622D6C
:1007A00070E080E090E098D120E030E040E85BE34A
:1007B00066D26D8F7E8F8F8F98A3C301B2018CD1CB
:1007C0009B01AC016D8D7E8D8F8D98A18DD020E029
:1007D00030E040E053E453D2905823E333E34BE05E
:1007E00052E4E6D0A5019401E3D04AD10091A600DD
:1007F0001091A7002091A8003091A900083E134055
:100800002105310510F060E070E07A8F698F8A8DE4
:100810008C83898D8D830BC0BA82012B09F08DCE1C
:1008200081E088128ACEEB821C8290E29D8367E091
:1008300040C0BA820115110529F581111DC0E1E002
:100840008E121AC068E0892D9A2D5ADCFFE728E342
:1008500041E0F15020404040E1F700C00000F89432
:10086000E2E4EF93EFE4EF93EFE4EF93E4E5EF934B
:10087000E0E0FEE0099461CE3A8ADB8A65E0892DEA
:100880009A2D19C00130110509F057CE81110EC003
:100890008FEF880D8E3F50F4682D80E090E015D0EA
:1008A00068E0892D9A2D2CDCF82C47CE3A82DB8229
:1008B00065E0CE01019670DC40CEE199FECF9FBB92
:1008C0008EBBE09A99278DB30895262FE199FECF2C
:1008D0001CBA9FBB8EBB2DBB0FB6F894E29AE19A6F
:1008E0000FBE019608955058BB27AA270ED048C1C5
:1008F00039D130F03ED120F031F49F3F11F41EF495
:100900002EC10EF4E095E7FB24C1E92F4AD180F314
:10091000BA17620773078407950718F071F49EF5FC
:1009200062C10EF4E0950B2EBA2FA02D0B01B90178
:1009300090010C01CA01A0011124FF27591B99F055
:10094000593F50F4503E68F11A16F040A22F232F61
:10095000342F4427585FF3CF469537952795A795B1
:10096000F0405395C9F77EF41F16BA0B620B730B58
:10097000840BBAF09150A1F0FF0FBB1F661F771FC9
:10098000881FC2F70EC0BA0F621F731F841F48F47E
:10099000879577956795B795F7959E3F08F0B3CF04
:1009A0009395880F08F09927EE0F979587950895EE
:1009B0000CD0E6C0DED040F0D5D030F021F45F3F5F
:1009C00019F0C7C0511110C1CAC0EBD098F39923D8
:1009D000C9F35523B1F3951B550BBB27AA27621703
:1009E0007307840738F09F5F5F4F220F331F441F48
:1009F000AA1FA9F333D00E2E3AF0E0E830D0915080
:100A00005040E695001CCAF729D0FE2F27D0660F6C
:100A1000771F881FBB1F261737074807AB07B0E8AB
:100A200009F0BB0B802DBF01FF2793585F4F2AF0C1
:100A30009E3F510568F08DC0D7C05F3FECF3983EF4
:100A4000DCF3869577956795B795F7959F5FC9F71E
:100A5000880F911D9695879597F90895E1E0660FA7
:100A6000771F881FBB1F621773078407BA0720F020
:100A7000621B730B840BBA0BEE1F88F7E095089589
:100A800098D088F09F5790F0B92F9927B751A0F0D0
:100A9000D1F0660F771F881F991F1AF0BA95C9F712
:100AA00012C0B13081F09FD0B1E008959CC0672F93
:100AB000782F8827B85F39F0B93FCCF386957795C2
:100AC0006795B395D9F73EF49095809570956195AB
:100AD0007F4F8F4F9F4F0895E89409C097FB3EF4D6
:100AE00090958095709561957F4F8F4F9F4F99237B
:100AF000A9F0F92F96E9BB279395F69587957795F9
:100B00006795B795F111F8CFFAF4BB0F11F460FFB8
:100B10001BC06F5F7F4F8F4F9F4F16C0882311F010
:100B200096E911C0772321F09EE8872F762F05C024
:100B3000662371F096E8862F70E060E02AF09A95BF
:100B4000660F771F881FDAF7880F9695879597F9B4
:100B5000089597F99F6780E870E060E008959FEF3F
:100B600080EC089500240A94161617061806090644
:100B7000089500240A941216130614060506089513
:100B8000092E0394000C11F4882352F0BB0F40F49B
:100B9000BF2B11F460FF04C06F5F7F4F8F4F9F4FDB
:100BA000089557FD9058440F551F59F05F3F71F05D
:100BB0004795880F97FB991F61F09F3F79F08795C4
:100BC0000895121613061406551FF2CF4695F1DF4D
:100BD00008C0161617061806991FF1CF86957105DD
:100BE000610508940895E894BB2766277727CB0111
:100BF00097F908950EF0AEC0B2CF6894AACFD9DFAE
:100C0000C8F39923D1F3C6F3DF93CF931F930F93C8
:100C1000FF92C92FDD2788232AF02197660F771FBF
:100C2000881FDAF720E030E040E85FEB9FE3883987
:100C300020F0803E30F021968F7756DEEEE1F0E036
:100C400003C052DEEBE4F0E093D08B01BE01EC0177
:100C5000FB2E6F5771097595771F880B990B3EDF37
:100C600028E132E741E35FE315D0AF2D9801AE01F3
:100C7000FF900F911F91CF91DF9147DE81CF0AD076
:100C80007FCF70DF28F075DF18F0952309F061CF72
:100C900066CFAACF86DFA8F39923D9F35523C9F3EA
:100CA000950F50E0551FAA27EE27FF27BB270024EA
:100CB0000894679520F4E20FF31FB41F0A1E220F59
:100CC000331F441FAA1F6695A9F7779530F4F30FD9
:100CD000B41F0A1E121E08F46395330F441FAA1F87
:100CE000221F769599F7879520F4B40F0A1E121EDD
:100CF000631F440FAA1F221F331F8695A9F7862F53
:100D0000712D602D11249F5750408AF0E1F0882307
:100D10004AF0EE0FFF1FBB1F661F771F881F915001
:100D20005040A9F79E3F510570F013CF5DCF5F3F54
:100D3000ECF3983EDCF3869577956795B795F79534
:100D4000E7959F5FC1F7FE2B880F911D96958795BC
:100D500097F908959F3F31F0915020F4879577954A
:100D60006795B795880F911D9695879597F9089582
:100D7000DF93CF931F930F93FF92EF92DF927B014C
:100D80008C01689405C0DA2EEF0184DFFE01E8943F
:100D9000A5912591359145915591AEF3EF01B5DDC2
:100DA000FE019701A801DA9479F7DF90EF90FF90A8
:0E0DB0000F911F91CF91DF910895F894FFCF1E
:00000001FF
