:1000000010C01FC0FEC11DC051C175C11AC019C0AA
:1000100018C017C016C015C014C013C07BC1302E45
:10002000303311241FBECFE5D2E0DEBFCDBF20E0CC
:10003000A0E6B0E001C01D92A23BB207E1F708D2F2
:1000400056C5DECF382FFC018FEF9FEF2E2F231BDD
:10005000261788F42191822728E0AC0141705527AA
:1000600096958795452B21F041E0842740EA942717
:10007000215099F7EBCF0895982F96959575880F95
:100080008A7A982B892F869586958373990F990F75
:100090009C7C892B82950895CF92DF92EF92FF92FC
:1000A0000F931F93CF93DF93D62F8C01FF24F394EC
:1000B00082E0D82E94E5C92EEE24EA94DD2379F16E
:1000C000F80181918F01C091A300CF5FCF71909112
:1000D000A200C917E1F3D0DFEC2FF0E0EE57FF4F9D
:1000E0008083C093A3008091A50080FD16C08091FD
:1000F000A50082FDFCCFF89412BEFCBCF3BED8BEB6
:1001000089B7826089BFCDB8EFB8EEB8B99A80914F
:10011000A50081608093A5007894D150CFCFDF9166
:10012000CF911F910F91FF90EF90DF90CF900895A6
:100130001F93CF93DF93EC01162F6EEF610F82DFD9
:100140009E01210F311DF9013297808331969083F2
:10015000612FCE01DF91CF911F919ECF8F929F9201
:10016000AF92BF92CF92DF92EF92FF92CF9386B180
:10017000877D86B9379A8FE887B98FE99FE0019725
:10018000F1F700C00000C4E0C12CD12C7601369AF2
:100190003699FECF64B175B180E090E0B1D39B0198
:1001A000AC01C701B601B2D26B017C01C15079F735
:1001B00020E030E040E85EE32FD44B015C0137984B
:1001C000379A8CE187B98FE99FE00197F1F700C07A
:1001D0000000C4E0C12CD12C7601369A3699FECFAE
:1001E00064B175B180E090E08BD39B01AC01C70195
:1001F000B6018CD26B017C01C15079F720E030E070
:1002000040E85EE309D49B01AC016DEC7CEC8CE82A
:1002100094E4E0D26B017C01379820E030E040E2CA
:1002200051E4FAD33FD382EE860F823E28F061314B
:1002300028F0CFEEC60F03C0CDE001C0C0E0C092F1
:10024000AE00D092AF00E092B000F092B10023E394
:1002500033E748E853E4C501B40157D22AE939E944
:1002600049E85FE3B7D26B017C016C2F70E080E05E
:1002700090E044D320E030E040E551E4ABD29B0174
:10028000AC01C701B60142D26093AA007093AB00E3
:100290008093AC009093AD00CF91FF90EF90DF90F2
:1002A000CF90BF90AF909F908F9008951F920F9224
:1002B0000FB60F9211248F939F93AF93BF938091AA
:1002C000A6009091A700A091A800B091A900019666
:1002D000A11DB11D8093A6009093A700A093A80034
:1002E000B093A900BF91AF919F918F910F900FBED6
:1002F0000F901F9018951F920F920FB60F92112416
:100300008F9382B78E5C82BF8F910F900FBE0F903C
:100310001F9018951F920F920FB60F9211248F9372
:100320009F93EF93FF938091A50080FF38C0C39AFD
:100330008091A50081FF0EC08091A5008D7F8093E4
:10034000A5008BEF8EB98091A400880F880F880FCD
:1003500087601EC09091A3008091A2009817D1F0F1
:100360008091A50082608093A500E091A200EF5FDC
:10037000EF71E093A200F0E0EE57FF4F8081809391
:10038000A4008BEF8EB98091A40086958695806835
:100390008FB92EC0C3988091A5008E7F11C0C398DD
:1003A0008091A5008B7F8093A500E0918100EF5F95
:1003B000EF7180918000E81306C08091A5008860ED
:1003C0008093A50007C0E09381008FB1F0E0E05A70
:1003D000FF4F808313BE88B3836088BB87B38C7F55
:1003E00087BB1DB880E28ABF8BB780628BBFA89A9B
:1003F000FF91EF919F918F910F900FBE0F901F90E3
:1004000018951F920F920FB60F9211248F93B099E7
:1004100019C081E182BF82B7885682BF81E08CBD5E
:1004200083BF82E088BF89B7826089BF84E58DB9C8
:1004300087EF8EB98BB78F7D8BBF8091A5008460CD
:100440008093A5008F910F900FBE0F901F9018956D
:10045000CF93DF93CDB7DEB768970FB6F894DEBFC2
:100460000FBECDBFF89480E090E039D1E82E76DE63
:1004700010928000109281001092A2001092A300AE
:10048000BB9AC39888B3836088BB87B38C7F87BBD4
:100490001DB880E28ABF8BB780628BBFA89A789420
:1004A0006E0128E1C20ED11C42E0942E51E2A52E2D
:1004B00050E0B52EA895909181008091800098170A
:1004C000C9F38FE097E20197F1F700C0000086E8DA
:1004D000582E93E0492E24E0822E36EE232E909162
:1004E000810080918000981729F3FE0171963F01E9
:1004F00081818193EC15FD05D9F790918100809160
:1005000080009817D1F3E0918000EF5FEF71E093E6
:100510008000F0E0E05AFF4F8081AEDD888F99893E
:10052000E912DDCFFA889DEF9F0D923018F096E02A
:10053000F912D5CF0F8910E0182B66E0C30182DDD8
:100540000817190761F60B891C8910270127102746
:100550003E888D89E982E4E0FE1609F472C0F6E077
:10056000FF1609F47BC023E0F212B9CFFA8201151D
:10057000110541F481E03812B2CF9B821C821D82AA
:1005800067E017C001301105C1F492E03912A7CF1E
:100590008B82EEE1F0E084918C83EFE1F0E08491D6
:1005A0008D83E0E2F0E084918E83F50184918F8366
:1005B00069E0CE010196BCDD38C00230110559F466
:1005C000F1E03F128CCF9B8280E090E088D0E82E53
:1005D0001C828D8341C00330110589F422E0321260
:1005E0007ECF8B82BBDD8091B1008C838091B00087
:1005F0008D838091AF008E838091AE0013C0043054
:10060000110599F482E038126ACF8B82A7DD8091C0
:10061000AD008C838091AC008D838091AB008E8384
:100620008091AA008F8369E056C00530110509F05A
:1006300056CF8E89813009F052CF9B828C822D82D9
:100640000BC0FA82012B09F04ACF91E0391247CF53
:100650009B821C82E0E2ED8367E03DC0FA820115D7
:10066000110519F581111CC0F1E03F1219C068E0B5
:10067000C30112DD2FE788E391E0215080409040D4
:10068000E1F700C00000F894E2E4EF93EFE4EF93A9
:10069000EFE4EF93E4E5EF93E0E0FEE009941FCF91
:1006A0005A8A4B8A65E0C30118C00130110509F070
:1006B00016CF81110DC08FEF830D8E3F48F4632D4F
:1006C00080E090E014D068E0C301E6DCE32C07CFC3
:1006D0005A824B8265E0CE0101962ADD00CFE19976
:1006E000FECF9FBB8EBBE09A99278DB30895262F2E
:1006F000E199FECF1CBA9FBB8EBB2DBB0FB6F89401
:10070000E29AE19A0FBE019608955058BB27AA2796
:100710000ED048C139D130F03ED120F031F49F3FA6
:1007200011F41EF42EC10EF4E095E7FB24C1E92F6D
:100730004AD180F3BA17620773078407950718F048
:1007400071F49EF562C10EF4E0950B2EBA2FA02D28
:100750000B01B90190010C01CA01A0011124FF276E
:10076000591B99F0593F50F4503E68F11A16F04069
:10077000A22F232F342F4427585FF3CF4695379568
:100780002795A795F0405395C9F77EF41F16BA0B2D
:10079000620B730B840BBAF09150A1F0FF0FBB1FDB
:1007A000661F771F881FC2F70EC0BA0F621F731F24
:1007B000841F48F4879577956795B795F7959E3F81
:1007C00008F0B3CF9395880F08F09927EE0F97950F
:1007D000879508950CD0E6C0DED040F0D5D030F03B
:1007E00021F45F3F19F0C7C0511110C1CAC0EBD04E
:1007F00098F39923C9F35523B1F3951B550BBB27E8
:10080000AA2762177307840738F09F5F5F4F220F94
:10081000331F441FAA1FA9F333D00E2E3AF0E0E88D
:1008200030D091505040E695001CCAF729D0FE2FD9
:1008300027D0660F771F881FBB1F2617370748076B
:10084000AB07B0E809F0BB0B802DBF01FF27935821
:100850005F4F2AF09E3F510568F08DC0D7C05F3FC3
:10086000ECF3983EDCF3869577956795B795F79509
:100870009F5FC9F7880F911D9695879597F9089501
:10088000E1E0660F771F881FBB1F6217730784079D
:10089000BA0720F0621B730B840BBA0BEE1F88F7AC
:1008A000E095089598D088F09F5790F0B92F992738
:1008B000B751A0F0D1F0660F771F881F991F1AF06B
:1008C000BA95C9F712C0B13081F09FD0B1E0089558
:1008D0009CC0672F782F8827B85F39F0B93FCCF3D9
:1008E000869577956795B395D9F73EF49095809561
:1008F000709561957F4F8F4F9F4F0895E89409C081
:1009000097FB3EF490958095709561957F4F8F4F42
:100910009F4F9923A9F0F92F96E9BB279395F69558
:10092000879577956795B795F111F8CFFAF4BB0FD6
:1009300011F460FF1BC06F5F7F4F8F4F9F4F16C03A
:10094000882311F096E911C0772321F09EE8872FC4
:10095000762F05C0662371F096E8862F70E060E080
:100960002AF09A95660F771F881FDAF7880F9695F9
:10097000879597F9089597F99F6780E870E060E0A0
:1009800008959FEF80EC089500240A941616170628
:1009900018060906089500240A9412161306140670
:1009A00005060895092E0394000C11F4882352F0D3
:1009B000BB0F40F4BF2B11F460FF04C06F5F7F4F8B
:1009C0008F4F9F4F089557FD9058440F551F59F072
:1009D0005F3F71F04795880F97FB991F61F09F3F2C
:1009E00079F087950895121613061406551FF2CF55
:1009F0004695F1DF08C0161617061806991FF1CFA5
:100A000086957105610508940895E894BB276627CB
:100A10007727CB0197F908950AD0C4CFB5DF28F026
:100A2000BADF18F0952309F0A6CFABCFEFCFCBDF1D
:100A3000A8F39923D9F35523C9F3950F50E0551F17
:100A4000AA27EE27FF27BB2700240894679520F4E8
:100A5000E20FF31FB41F0A1E220F331F441FAA1FE9
:100A60006695A9F7779530F4F30FB41F0A1E121E8E
:100A700008F46395330F441FAA1F221F769599F738
:100A8000879520F4B40F0A1E121E631F440FAA1F7D
:100A9000221F331F8695A9F7862F712D602D1124F3
:100AA0009F5750408AF0E1F088234AF0EE0FFF1F75
:100AB000BB1F661F771F881F91505040A9F79E3FAC
:100AC000510570F058CFA2CF5F3FECF3983EDCF3B6
:100AD000869577956795B795F795E7959F5FC1F7E9
:100AE000FE2B880F911D9695879597F90895F89498
:020AF000FFCF36
:00000001FF
